:100000000C94FF020C9446030C9446030C94460394
:100010000C9446030C9446030C9446030C9446033C
:100020000C9446030C9446030C945E210C943022ED
:100030000C946E180C9446030C9446030C944603DF
:100040000C9446030C9446030C9446030C9446030C
:100050000C9446030C94BB180C9446030C94460372
:100060000C9446030C9446030C9446030C944603EC
:100070000C9446030C9446030C9446030C944603DC
:100080000C9446030C9446030C9446030C944603CC
:100090000C9446030C9446030C9446030C944603BC
:1000A0000C9446030C9446030C944603100E100E59
:1000B000420E420E8F0EAF0ED80FD80FBA0E570F4A
:1000C000680F680FC80FD80FD80FD10F74107410B5
:1000D000861086107D10861086108610741074109D
:1000E00082108610861082109D22C422B623C4225C
:1000F000B62310233323B623892398230103E10178
:1001000003E2000102E10102E20029001E001F00DB
:1001100020002100220023002400250026002700C3
:100120002D002E004C002B0014001A0008001500B2
:1001300017001C0018000C00120013002F003000E4
:100140002800390004001600070009000A000B000F
:100150000D000E000F003300340032002A00E100D1
:1001600000001D001B000600190005001100100012
:1001700036003700387252000151E000E300E2001F
:100180000000045102512C0000000352E600500010
:1001900051004F00000001003A003B003C003D00D0
:1001A0003E003F0040004100420043004400450043
:1001B0000100010001000100010001000100010037
:1001C0000100010001000100010001000100010027
:1001D0000100010001000100010001000100010017
:1001E0000100010001000100010001000000010008
:1001F00001000100010001000100010001000100F7
:1002000001000100010001000100010000000100E7
:1002100001000100000001000100010001000100D7
:1002200000000100010001000100010001000100C7
:1002300001000100010001000100010001000100B6
:10024000010001000100010001002400250026003A
:100250000100010001000100010001000100010096
:100260000100010001002100220023000100010023
:100270000100010001000100000001000100010077
:10028000010027001E001F002000010001000100E6
:100290000100010001000100000001000100270031
:1002A0000000010001000100010001000000010048
:1002B0000100010001000100010001000100010036
:1002C0000100010001000100010001000100010026
:1002D0000100010001000100010001000100010016
:1002E0000100010001000100010001000100010006
:1002F00001000100010001000100010001000100F6
:1003000001000100000001000100010001000100E6
:1003100001000100010001000100010001000100D5
:100320000100010000002C0001000100000000524B
:1003300001000100010001000000010001000100B6
:1003400001000100010001000100010001000100A5
:100350000100010001000100260227020100010046
:100360000100010001000100010001000100010085
:10037000010001002F003000010001000100010018
:100380000100010001000100010001000100010065
:100390000000360237023600370034000100010049
:1003A0000100010001004B000100010001000100FB
:1003B00000000100010001000000010001004A00EE
:1003C0004E004D00000000000000000000002A2B3D
:1003D00028000000000000000000000000000000F5
:1003E0000029000000002C1E34202122243426275E
:1003F000252E362D3738271E1F202122232425267F
:100400003333362E37381F0405060708090A0B0C4C
:100410000D0E0F101112131415161718191A1B1C94
:100420001D2F3130232D350405060708090A0B0C52
:100430000D0E0F101112131415161718191A1B1C74
:100440001D2F3130354C000000000000000000007E
:10045000000000000000000000007E0F00D4FFFF3D
:10046000FFC7000000780403300000001E034200B4
:1004700061006E0061006E006100530070006C004E
:100480006900740020003600300000002203540090
:1004900068006500560061006E0020004B0065009A
:1004A000790062006F006100720064007300000058
:1004B0000403090409023B00020100A03209040000
:1004C0000001030101000921110100012240000780
:1004D00005810308000A0904010001030000000966
:1004E000211101000122BC000705820320000A122D
:1004F00001100100000008AEFE7088010001020337
:100500000105010902A10185020901A100050919DE
:1005100001290515002501950575018102950175D3
:100520000381010501093009311581257F95027587
:1005300008810609381581257F9501750881060512
:100540000C0A38021581257F950175088106C0C007
:1005500005010980A101850319012AB700150126AB
:10056000B700950175108100C0050C0901A1018536
:100570000419012AA002150126A002950175108117
:1005800000C005010906A1018505050719E029E755
:10059000150025019508750181020507190029EF4D
:1005A0001500250195F0750181020508190129053D
:1005B000950575019102950175039101C005010929
:1005C00006A101050719E029E71500250195087521
:1005D0000181029501750881010507190029FF15A0
:1005E0000026FF00950675088100050819012905F8
:1005F000950575019102950175039101C0001124C3
:100600001FBECFEFDAE0DEBFCDBF04B603FE27C0CA
:1006100080918E0290918F02A0919002B0919102F0
:100620008730904BA740B04BD1F410928E021092BD
:100630008F02109290021092910214BE84B7877FAD
:1006400084BF0FB6F894A89580916000886180936C
:100650006000109260000FBEE0E0F8E3099511E041
:10066000A0E0B1E0E8EBF8E402C005900D92AA38F2
:10067000B107D9F722E0AAE8B1E001C01D92AE3877
:10068000B207E1F70E94BD1E0C945A240C9400009E
:10069000A5E1B1E041E050E02EE02A0F8D91E82F76
:1006A000E295EF70F0E031A18F70BA0102C0660FE1
:1006B000771F8A95E2F7CB01962F9095932391A30C
:1006C00092A1892B82A32A13E9CFA3E2B1E041E0F2
:1006D00050E025E02A0F8D91E82FE295EF70F0E0D1
:1006E00031A18F70BA0102C0660F771F8A95E2F7B9
:1006F000CB01962F9095932391A392A1892B82A34E
:100700002A13E9CF08953F924F925F926F927F92A2
:100710008F929F92AF92BF92CF92DF92EF92FF9211
:100720000F931F93CF93DF9300D000D0CDB7DEB7E8
:10073000582E692E85E1C82E81E0D82EE12CF12CAF
:10074000912CAA24A394B12C83E291E025E0322ECF
:10075000380ED6018D916D01982F92959F70292F9B
:1007600030E03C832B83D90191969C9191978F70B7
:10077000850101C0000F8A95EAF7892F802B919699
:100780008C93919792968C919297802E8094882149
:1007900092968C930E94E007A5010E2C02C0440F94
:1007A000551F0A94E2F7BA0160957095E52DF62D74
:1007B00023E231E03A832983712C20813181A981A0
:1007C000BA814D90BA83A983842D82958F7090E071
:1007D000DC0190968C9190E0B42DBF7002C095958D
:1007E0008795BA95E2F780FD04C0C901842B952B4B
:1007F00003C0C901862397232817390721F0918365
:10080000808377247394329629813212D6CFAB81BC
:10081000BC8191968C919197882291968C92919718
:1008200092968C919297082B92960C939728BFEFF3
:10083000EB1AFB0AEEE0EE16F10409F08ACF892DDF
:100840000F900F900F900F90DF91CF911F910F910C
:10085000FF90EF90DF90CF90BF90AF909F908F90E0
:100860007F906F905F904F903F9008950C94D407C5
:100870000C94D5070C943E040C946B05CF93FB01AC
:10088000C281CC2349F088329D4579F483E091E020
:100890000E945C05C0E009C088329D4529F48CEFB8
:1008A00090E00E945C0501C0C1E08C2FCF910895BB
:1008B00081E0089508950C945A041F93CF93DF9319
:1008C00000D000D01F92CDB7DEB749835A83309154
:1008D000A20189819A81311114C0662359F0222323
:1008E00049F00E94B715182F682F89819A810E94BC
:1008F0005C1503C00E948B15182F69817A81812FA6
:1009000004C00E94B71569817A810F900F900F90F3
:100910000F900F90DF91CF911F910C94D005FC01A7
:10092000262F408151816281738184810C945D0402
:10093000CF93DF93EC0160E00E948F04BE01DF9152
:10094000CF910C945B04FF920F931F93CF93DF938F
:10095000E82FF0E0EA53FC4FF490C82FC695C695F7
:10096000C695D0E0FE01EA5AFB4F0491877010E073
:10097000082E02C0159507950A94E2F70170112719
:10098000FE01EA5BFB4FC491D0E002C0D595C7954C
:100990008A95E2F7C170DD270115110519F081EE86
:1009A0000E942F0D209719F086EE0E942F0D8F2D9B
:1009B0000E94B90DCD2B19F086EE0E94850D012BFA
:1009C00041F081EEDF91CF911F910F91FF900C9438
:1009D000850DDF91CF911F910F91FF900895EF92B8
:1009E000FF920F931F93CF93DF938C01F62E8AE033
:1009F000E82EF8018491882309F457C0813009F06A
:100A000042C0E8012196FE018491813031F42196A3
:100A1000FE0184910E94B90D39C0823039F4E80199
:100A20002296FE0184910E942F0D30C0833039F44C
:100A3000E8012296FE0184910E94850D27C0843032
:100A400029F5E8012296FE01249180E090E030E053
:100A5000205331092A30310560F4E89EA001E99E57
:100A6000500D1124CA01820F931F2196FE0124917B
:100A7000EECF009759F0EFE9FFE03197F1F700C0B2
:100A800000000197F6CF0E94A304E8018E010F5FDA
:100A90001F4F8F2D882309F4ACCFEFE9FFE031978A
:100AA000F1F700C000008150F5CFDF91CF911F9189
:100AB0000F91FF90EF90089560E00C94EF040E9476
:100AC000E716811102C00E949A170E9479090C94BE
:100AD00036040C943804089581E008950C946C0554
:100AE000CF93C82F0E943C048C2F0E946E05CF919B
:100AF000089508950E9464100E9479052FEF84E301
:100B00009CE0215080409040E1F700C000000C9430
:100B1000E1180F931F93CF93DF93EC0161E00E94E4
:100B20008F048C01BE010E943A04882379F1BE0132
:100B3000C8010E941409882349F1BE01C8010E941E
:100B4000140A882319F1BE01C8010E94660A88238D
:100B5000E9F0BE01C8010E94910B8823B9F08A8197
:100B6000882369F001158CE5180731F00E3D1C450E
:100B700031F40E949A170AC00E947A0507C0CE017C
:100B8000DF91CF911F910F910C94580480E0DF9179
:100B9000CF911F910F91089580E090E008950895FE
:100BA0009EE0799FF001112496E4899FE00DF11DEC
:100BB0001124E60FF11DEE0FFF1FE65FFE4F85913A
:100BC00094910895880F991FFC01EA59FB4F859174
:100BD00094910895CF93DF930E94D0050E94FD0663
:100BE000EC01811520E59207F0F5811530E49307BB
:100BF00008F0CDC0883E910500F5803E910508F0D3
:100C0000F8C0883A910570F4853A910508F09FC0C4
:100C10008130910509F4EDC008F4E9C0049708F0AB
:100C2000E8C0E5C08F3B910508F499C0803C910570
:100C300008F4DDC0805C91099DC0811540E29407F5
:100C400058F4C11581E0D80708F0D3C0C03FD105E2
:100C500008F4CDC0D065CDC0811520E3920708F01F
:100C60008DC09F7087C0811535E5930708F044C09B
:100C7000811544E5940708F0A1C0C11582E5D807A5
:100C800008F5C11521E5D20708F084C08C2F8370C8
:100C900021E030E002C0220F331F8A95E2F73C6862
:100CA000CE0174E0969587957A95E1F78370382B9D
:100CB000CF70C695C69580E2C89FE0011124C22B73
:100CC000D32B97C02C2F26952695CE01837099277C
:100CD000C115D34508F063C040E2249F9001112460
:100CE000C1E0D0E002C0CC0FDD1F8A95E2F72C2BCB
:100CF0003D2BE901DC687DC0811549E59407A0F42E
:100D0000C11588E5D80708F05EC0C11526E5D207F1
:100D100008F06DC08C2F0E9491078F71C82FD0E012
:100D2000DC2FCC27D06265C081153AE5930708F423
:100D30004FC090568115904208F059C08D2F8F7189
:100D40000E949107DD27D0628F71D82B52C0C55AFF
:100D5000D0E0CA5ADE4FC881D0E0D0644AC0C85A39
:100D6000D0E0CC0FDD1FC85DDE4F0990D881C02DCB
:100D7000D4643FC00E94E205EC013BC09927D3FF39
:100D800003C0EC01D86C35C0EC01D06C32C0DF7010
:100D9000D06A2FC0DC2FCC27C16FD06A2AC040E2B6
:100DA000249F90011124C1E0D0E002C0CC0FDD1FD0
:100DB0008A95E2F7C22BD32BDA681BC0D82FCC2739
:100DC000C46FD06A16C0DC2FCC27C06FD06A11C0A8
:100DD0008F700E94910794E0D695C7959A95E1F798
:100DE000CF70D0E0DC2FCC27D069C82B02C0C0E088
:100DF000D0E0CE01DF91CF9108958238910569F15D
:100E0000B0F48133910509F46DC048F4893291053D
:100E100009F463C08A32910509F469C008958533E5
:100E2000910509F455C089339105B9F00895833EC1
:100E3000910569F138F4803E9105B1F0823E91054B
:100E400009F10895863E9105A9F1873E9105B9F112
:100E5000843E910509F064C023C020917F0220FDEB
:100E60004FC021FD4DC0089580917F0280FD44C098
:100E70008091800280FF44C080917F0284FD42C047
:100E800083EE4DC080917F0282FF38C0F5CF809104
:100E90007F0282FD33C08091800280FD31C0ECCFA3
:100EA0008091800281FF32C080917F0284FD2AC040
:100EB00087EE35C080917F0283FF26C0F5CF8091F9
:100EC0007F0283FD21C08091800281FD1FC0ECCF95
:100ED00080917F0285FD1CC01DC080917F0285FD31
:100EE00019C016C080917F0286FD16C017C0809180
:100EF0007F0286FD13C010C089E311C082EE0FC0CF
:100F000080EE0DC080E00BC086EE09C084EE07C005
:100F100089E205C085E303C08AE201C081E390E075
:100F2000089590917F0292FF0DC0282F28712830DC
:100F300019F4877F846006C0282F2471243011F4AF
:100F40008B7F886093FF0DC0282F2871283119F4FA
:100F5000877E846106C0282F2471243111F48B7E92
:100F600088612091800220FF0DC0382F3871383001
:100F700019F4877F816006C0382F3171313011F448
:100F80008E7F886021FF0DC0282F2871283119F429
:100F9000877E816106C0282F2171213111F48E7E58
:100FA000886194FD877E089508950895E82FF0E004
:100FB000EE0FFF1FE059FD4F808191810895089544
:100FC00080EA8A95F1F708950E944803E6E6F2E088
:100FD000A0E7B2E0119211921D921D9282E0E037DB
:100FE000F807C1F785E00E940A080C945F05CF93CB
:100FF00086E692E00E948303C82F282F45E060E731
:1010000072E086E692E00E940B080E9469058C2F30
:10101000CF9108950895FF920F931F93CF93DF937D
:10102000F82E092F162FD72FC42F222349F081E045
:1010300080938C010E94A01890938B0180938A0169
:1010400080918C018823D9F080918A0190918B0145
:101050000E94AC18069798F0EF2DF02FA12FBD2F0E
:1010600080E090E04C2F50E08417950734F42191F4
:1010700031912D933D930196F7CF10928C01DF9122
:10108000CF911F910F91FF9008950E94E716811153
:1010900002C00E949A170E94221780937A02282F7A
:1010A00026952695269530E02230310524F087706C
:1010B000886080937A0280917A0280FF04C08695CE
:1010C0008695869501C080E00C94490980917A024A
:1010D000982F96959695969521F4877088608093C1
:1010E0007A0280917A02816080937A020E942617A8
:1010F00080917A028695869586950C94490980910F
:101100007A02982F969596959695A1F0915E990FF3
:10111000990F990F8770892B80937A02887F91E0CD
:1011200009F490E080917A0290FB80F980937A0232
:101130000E94261780917A028695869586950C9452
:10114000490980917A0280FD13C0816080937A0200
:10115000813019F489E080937A0280917A020E94AA
:10116000261780917A028695869586950C94490972
:10117000089580917A0280FF08C08E7F80937A0262
:101180000E94261780E00C944909089580917A0204
:1011900080FD0C94B9080C94A10890917A02892FD3
:1011A0008695869586958F5F8F719770823038F41B
:1011B000880F880F880F892B80937A0202C0909342
:1011C0007A0280917A02887F91E009F490E0809120
:1011D0007A0290FB80F980937A020E942617809110
:1011E0007A028695869586950C944909811181E04D
:1011F00090917A029770282F220F220F220F922BA4
:1012000090937A02987F21E009F420E090917A028D
:1012100020FB90F990937A020C9449090E94F608F9
:1012200080917A020C9426179C01FB01828188230D
:1012300049F12D3BFCE53F07C9F040F42B3BECE5C1
:101240003E0769F02C3B3C4561F008952F3B9CE53F
:10125000390791F070F0203C3C4589F0089581E019
:1012600001C080E00E940E0980E008950E947F087E
:10127000FBCF0E946608F8CF0E94C608F5CF0E94F7
:10128000CD08F2CF81E00895279A2F9808952F98DE
:101290000895CF93DF931F92CDB7DEB7823060F40D
:1012A00081110AC090918000977F9093800089837C
:1012B0000E944709898106C08091800088608093E0
:1012C000800081E090E091958195910921E030E0E6
:1012D0008C37944110F420E030E0319521953109AC
:1012E00030938D0020938C000F90DF91CF91089563
:1012F00008950E9444098AE08093800089E18093E8
:1013000081008FEF9FEF90938700809386000C946D
:101310004508AF92BF92CF92DF92EF92FF920F9368
:101320001F93CF93DF937C015B01C42FD22FFC016D
:1013300082818823F9F040938F010E94A018909336
:101340008E0180938D0180E28C0F883008F061C09F
:10135000C77081E001C0880FCA95EAF7DF91CF918D
:101360001F910F91FF90EF90DF90CF90BF90AF90C3
:101370000C94CC0D10918F01141335C080918D0108
:1013800090918E010E94AC186C01B701C5010E94BA
:101390002913C816D90638F5C0E2CD0F1D17B9F0CC
:1013A00080E2810F883040F4177081E001C0880F1F
:1013B0001A95EAF70E94D30DC83048F481E09D2FBA
:1013C000977001C0880F9A95EAF70E94CC0D802F84
:1013D0000E94B90DC830E8F4D77081E001C0880FD1
:1013E000DA95EAF70AC080E28C0F883090F4C77073
:1013F00081E001C0880FCA95EAF7DF91CF911F9174
:101400000F91FF90EF90DF90CF90BF90AF900C9432
:10141000D30DDF91CF911F910F91FF90EF90DF904F
:10142000CF90BF90AF9008950F939C01CB01233FC5
:101430004CE5340731F188F4283DFCE53F07D9F04D
:10144000293D4CE5340779F1273D3C45A9F506E2F5
:1014500021EE41EE67ED7CE52BC0253FFCE53F0723
:10146000E1F0A8F0263F3C4539F507E225EE46EECF
:1014700066EF7CE51DC007E225EE45EE68ED7CE5F4
:1014800017C006E221EE40EE63EF7CE511C007E2F3
:1014900025EE44EE64EF7CE50BC006E221EE42EE61
:1014A00065EF7CE505C008E221E045EE69ED7CE5ED
:1014B0000E94890980E008C0FC018281882319F01C
:1014C00010928F0101C081E00F910895CF93DF93B7
:1014D000EC01FB018281882309F41FC1C230FCE5C5
:1014E000DF0708F41BC1C6319CE5D90738F09E011F
:1014F0002A5F3C452930310508F010C10E940417CD
:101500009093800280937F02C031ECE5DE0709F4FE
:10151000C3C008F041C0C8308CE5D80709F49AC0B0
:10152000F0F4C430ECE5DE0709F487C068F4C2309B
:101530008CE5D80709F477C0C330DC4509F0E3C077
:1015400080917F02826076C0C630ECE5DE0709F448
:101550006EC008F07BC080917F0288606BC0CC3089
:101560008CE5D80709F485C068F4CA30ECE5DE07DD
:1015700009F474C008F079C00E94641080917F0261
:10158000806858C0CE308CE5D80709F476C008F0E2
:101590007FC080917F028BC0CB3FECE5DE0709F472
:1015A0004FC018F5C3318CE5D80709F47DC078F435
:1015B000C131ECE5DE0709F473C0C231DC4509F046
:1015C000A2C00E94641080917F028F7733C0C53122
:1015D0008CE5D80709F472C008F486C0CA3FDC4520
:1015E00009F091C0809180023EC0CF3FFCE5DF074B
:1015F00009F45FC058F4CD3F9CE5D90709F444C015
:1016000008F43FC08091800282602DC0C130FDE5AA
:10161000DF0709F475C008F45DC0C230DD4509F08C
:1016200072C080E06EC080917F02816003C08091B3
:101630007F02806180937F0266C080917F0211C02B
:10164000809180028260809380025DC080917F02E1
:101650008062F0CF80917F028064ECCF80917F0226
:1016600088608460E7CF8160EECF80917F028E7FBB
:10167000E1CF80917F028D7FDDCF80917F02877FD8
:10168000D9CF8091800218C0809180028D7FDBCFFE
:1016900080917F028F7ECECF80917F028F7DCACFD7
:1016A00080917F028F7BC6CF80917F02877F8B7F67
:1016B000C1CF809180028D7F8E7FC5CF80917F02C8
:1016C00082FB222720F991E0922790FB82F990FB80
:1016D00083F9B0CF80918002982F909591708E7F82
:1016E000892B90FB81F9AFCF0E94641080917F021B
:1016F00087FB222720F991E0922790FB87F99ACF68
:1017000081E00E949C1780917F02909180020E944C
:1017100015170E94641080E001C081E0DF91CF9135
:101720000895CF93DF9386319C4541F5EB010E94EC
:101730003716282F8A81409100015091010188239A
:1017400079F02A7A91E009F490E090939001911158
:1017500002C069E201C065E3CA010E9439180AC0EB
:1017600080919001811102C069E201C065E3CA0164
:101770000E9444180E94831680E001C081E0DF913E
:10178000CF91089590939601809395010895E091EB
:101790009501F0919601309721F00190F081E02DB4
:1017A000099480E00895E0919501F09196013097B9
:1017B00099F020911401222359F020917F0227FFF4
:1017C00007C0DC012C9111962C93119725E02C93E6
:1017D0000280F381E02D09940895E0919501F09144
:1017E0009601309739F022E0DC012C930480F581DA
:1017F000E02D09940895209193013091940182176E
:10180000930771F09093940180939301E091950177
:10181000F0919601309721F00680F781E02D099430
:10182000089520919101309192018217930771F0F0
:101830009093920180939101E0919501F09196012E
:10184000309721F00084F185E02D0994089585B743
:10185000806885BF85B7806885BF0895089508951D
:101860000C942F0C08950C94320C0E94270C0E94AB
:101870002E0C0C94300C81E008950C943B0C0E94CB
:1018800097180E94E4070E9451190E9445080C9481
:10189000330C7F928F929F92AF92BF92CF92DF9242
:1018A000EF92FF920F931F93CF93DF93CDB7DEB7E5
:1018B0002A970FB6F894DEBF0FBECDBF0E94F70780
:1018C0000E943D0C811111C08FEF89838A831B8296
:1018D0000E94A0188160782F9D838C8349815A8152
:1018E0006B818D810E94FB0C4FC038E9832E31E063
:1018F000932E00E010E0702E802F0E94D6076C011E
:10190000F401A190B1904F01A826B926A114B10409
:1019100031F40F5F1F4F0530110569F7D5CF809166
:10192000350281FD0E94DF0790E0EE24E394F12C64
:1019300097012A213B21232B09F19E837F82CE2010
:10194000DF2091E0CD2809F490E098870E94A0184C
:101950008160782F9A8789874E815F8168858A8523
:101960000E94FB0C000F111FF801E856FE4F80810A
:101970009181E826F926F182E08206C09F5FEE0C95
:10198000FF1C9E30A9F6C5CF0E9478090E94221C38
:10199000109197010E94C70B1817C9F00E94C70B3E
:1019A000809397012A960FB6F894DEBF0FBECDBF85
:1019B000DF91CF911F910F91FF90EF90DF90CF902B
:1019C000BF90AF909F908F907F900C9470052A9657
:1019D0000FB6F894DEBF0FBECDBFDF91CF911F9140
:1019E0000F91FF90EF90DF90CF90BF90AF909F90BE
:1019F0008F907F900895CF93DF93CDB7DEB72B976D
:101A00000FB6F894DEBF0FBECDBF4F8358876987EE
:101A10007A878B87DE01119686E0FD0111928A9507
:101A2000E9F785E0FE01379601900D928A95E1F77E
:101A300049815A816B817C818D819E810E942C130A
:101A40002B960FB6F894DEBF0FBECDBFDF91CF91BE
:101A50000895FC01808191810E94F8150895CF932B
:101A6000882309F450C0C82F8CEF8C0F813AD0F432
:101A70006C2F80910001909101010E94B71788237B
:101A800049F06C2F80910001909101010E9444184F
:101A90000E9483166C2F80910001909101010E9499
:101AA00039180CC080E28C0F883058F4C77081E080
:101AB00001C0880FCA95EAF70E943A16CF910C949C
:101AC0008316EBE5EC0FE33040F4F0E0E957FE4F0E
:101AD000808190E0CF910C94FB0BE8E5EC0FE731AF
:101AE00050F4F0E0EE0FFF1FE75AFE4F8081918126
:101AF000CF910C94110CC03F30F08C2F0E94171B1B
:101B0000CF910C94041CCF910895882389F19CEF08
:101B1000980F913A40F4682F809100019091010153
:101B20000E9444180DC090E2980F983058F48770C6
:101B300091E001C0990F8A95EAF7892F0E9440161B
:101B40000C9483169BE5980F933020F480E090E08E
:101B50000C94FB0B98E5980F973120F480E090E00F
:101B60000C94110C803F20F00E947F1B0C94041CED
:101B70000895CF93C82F0E942F0DC93349F42FEF3A
:101B800087EE93E0215080409040E1F700C00000D4
:101B90008C2FCF910C94850D882321F00E943A164A
:101BA0000C9483160895882321F00E9440160C940B
:101BB00083160895BF92CF92DF92EF92FF920F9318
:101BC0001F93CF93DF937C01062FC72FFC01158154
:101BD00012951F70D281D1110E9457160E943016A3
:101BE000882399F0DD2389F08C2F807F803421F0C9
:101BF00080E2800F883048F082E00E94CE160E947A
:101C0000301691E0B82EB92601C0B12CCC2EC2946A
:101C10008FE0C822D12CF601EA5AFF4F0C94FE2324
:101C20008C2F807FCF70882311F0C295C07FDD2379
:101C300099F0CC2309F497C180E2800F883010F02E
:101C4000011104C08C2F0E943A1603C08C2F0E94F1
:101C50004A160E94831687C1802F0E94850DCC23CF
:101C600009F4A6C180E2800F883010F0011104C091
:101C70008C2F0E94401603C08C2F0E9450160E9489
:101C8000831696C18C2F807FCF70803211F0C29561
:101C9000C07F002319F00130C9F022C0DD2371F0AC
:101CA000112341F0113031F40E946A168C2B0E94EE
:101CB00070167EC10E946A168C2B1DC0112319F06C
:101CC000113009F475C10E94791625C0DD2321F079
:101CD000163008F06DC10EC0153008F069C11BC088
:101CE000DD2361F0112331F0F701858180FF3BC1D5
:101CF0008F7085838C2F0E94CC0D5AC1112359F00F
:101D0000093309F041C1FFEF27EE83E0F150204095
:101D10008040E1F737C18C2F0E94D30D49C18C2F31
:101D200086958695837090E0009719F0019761F091
:101D30003FC1DD2321F0802F9C2F937002C080E0F3
:101D400090E00E94FB0B3FC1DD2321F0802F9C2FF0
:101D5000937002C080E090E00E94110C34C1802F8B
:101D6000DD2319F00E94171B02C00E947F1B0E94F6
:101D7000041C29C18C2F837009F049C0D1111FC1E7
:101D8000402F429546954770440F440F602F6F7067
:101D9000862F90E0A0E0B0E0042E04C0880F991FC9
:101DA000AA1FBB1F0A94D2F704FF10C00FE010E077
:101DB00020E030E004C0000F111F221F331F4A959E
:101DC000D2F7009510952095309503C000E010E003
:101DD0009801C695C695C370D0E0BC01CD01602BBB
:101DE000712B822B932BC230D10559F0C330D10512
:101DF00059F0219719F00E947114E1C00E945F14FC
:101E0000DEC00E948314DBC00E945D14D8C0DD23B5
:101E100019F08C2F817001C08695882309F4CFC0FA
:101E2000402F429546954770440F440F602F6F70C6
:101E3000862F90E0A0E0B0E0042E04C0880F991F28
:101E4000AA1FBB1F0A94D2F704FF10C00FE010E0D6
:101E500020E030E004C0000F111F221F331F4A95FD
:101E6000D2F7009510952095309503C000E010E062
:101E70009801C695C695C370D0E0BC01CD01602B1A
:101E8000712B822B932BC230D10559F0C330D10571
:101E900059F0219719F00E94371591C00E9425151D
:101EA0008EC00E9449158BC00E94981488C0CF70C4
:101EB000DD2339F08C2F0E94BE14802F0E94CC0DA0
:101EC0007EC0802F0E94D30D8C2F0E94DF1477C01C
:101ED000023F01F128F4003F41F0013FA1F03FC073
:101EE000033FF9F0043F39F13AC0DD2341F01530EA
:101EF00008F05EC08C2F8F710E94041559C01630F7
:101F000008F056C0F7CFDD2339F08C2F8F710E9477
:101F1000BE144EC0DD23C9F38C2F8F710E94DF14D5
:101F200047C0DD2329F08C2F8F710E94A91440C077
:101F30000E94A4143DC0DD2349F0CF718C2F0E9474
:101F4000BE1463E08C2F0E94B91632C081E00E945B
:101F5000CE16123068F182E00E94CE1629C0DD2331
:101F600031F0112391F2802F0E942F0D21C01123F7
:101F700099F2093349F49FEFE7EEF3E09150E04026
:101F8000F040E1F700C00000802F0E94850D10C0D6
:101F90004C2F4F70602FC7010E94CC050E94D013B8
:101FA00012C04C2F4F70602FC7010E94CF050BC08D
:101FB00028E0C21AD10884E0C816D10420F40E9497
:101FC000C70B0E947005BB20D1F00E942C1680FD2B
:101FD00016C0F70112820E9426160E94BE14C70185
:101FE0000E9421100E942616DF91CF911F910F9120
:101FF000FF90EF90DF90CF90BF900C94DF14DF91B3
:10200000CF911F910F91FF90EF90DF90CF90BF90F5
:1020100008950F931F93CF93DF93EC01688179812B
:102020008A810E9403168C010E945B150E945C1439
:10203000B801CE010E94DA0DDF91CF911F910F916F
:102040000895CF93DF93EC01888199812B813C81A6
:10205000232BE9F09F3F11F48F3FC9F0CE010E947E
:10206000890581110CC00E943016882381F08A8175
:10207000882369F082E0DF91CF910C94CE16CE01D7
:102080000E940910CE01DF91CF910C949804DF914A
:10209000CF9108950E9457160E9467160E948316DA
:1020A0000E94351D0E94041C80E090E00E94FB0B02
:1020B00080E090E00C94110C80910001909101015E
:1020C0000E944F180C944A100E9447160C945C1002
:1020D000E92FE295EF70F0E03297EE30F105B0F4C1
:1020E000EA59FF4F0C94FE23803F91F018F4883E8C
:1020F00068F40EC0843F51F40BC0883E48F0813F25
:1021000029F406C093FB882780F9089580E008959C
:1021100081E008950E94F8150E9468100895CF93F9
:10212000DF9300D000D01F92CDB7DEB70F900F9095
:102130000F900F900F90DF91CF910895CF93DF9381
:1021400000D000D000D0CDB7DEB726960FB6F894F9
:10215000DEBF0FBECDBFDF91CF9108951F93CF9308
:10216000DF93C091A30116E08091A401C81799F0F4
:10217000D0E01C9FF0011D9FF00D1124EB55FE4F88
:102180004081518162817381848195810E949E107A
:102190002196C770E9CFDF91CF911F9108954091AB
:1021A000D5015091D6016091D7017091D8018091ED
:1021B000D9019091DA010C949E102091A301909185
:1021C000A40156E02917A9F030E0529FF001539F77
:1021D000F00D1124EB55FE4F7181671306C070811D
:1021E000871303C07281471306C02F5F3F4F2770CC
:1021F000E9CF80E0089581E00895CF93DF93809147
:10220000DA0182958F7009F051C08091D70188233F
:1022100009F44CC08091A301C091A4014091D50163
:102220005091D6016091D8017091D901D6E08C17F8
:10223000E9F190E061157105B1F15F3F11F44F3F95
:1022400091F1D89FF001D99FF00D1124DF01AB551A
:10225000BE4F11962C911197521325C02C91421309
:1022600022C012962C91129721111DC013962D9108
:102270003C911497261B370B2F3A3105A0F480911F
:10228000DA018F7080618093DA01E655FE4F80811C
:102290008F708061808385ED91E00E942110DF9135
:1022A000CF910C94AE1001968770C1CFDF91CF9182
:1022B00008958F929F92AF92BF92DF92EF92FF921A
:1022C0000F931F93CF93DF93CDB7DEB762970FB60F
:1022D000F894DEBF0FBECDBF8C0185E0F801DE01B2
:1022E0001D9601900D928A95E1F7D801EC90119618
:1022F0005C9111971296DC90129713968D909C909A
:1023000014979091D5012091D6016091D8017091D8
:10231000D9016115710509F46CC12F3F19F49F3F74
:1023200009F467C185EDA82E81E0B82EF090D701A1
:10233000F401E61BF70BFF2009F404C18091DA01D8
:10234000382F307FEF3AF10508F0C0C0311179C065
:10235000251313C09E1111C0D1100FC08F70806162
:102360008093DA010E94CF10C5010E942110809154
:10237000DA01D80115968C9321C0892809F457C039
:102380005F3F21F4BFEFEB1609F451C0D11018C024
:1023900040E0652F8E2D5A8B0E94DD105A898823CC
:1023A00079F085ED91E00E942110E5EDF1E086E005
:1023B000DF011D928A95E9F70E94CF10F12C36C1FA
:1023C0005F3F19F4BFEFEB1691F1D11030C040E040
:1023D000652F8E2D5A8B0E94DD10B82E5A898111DF
:1023E00026C0ED865E878D859E850E94F815292F73
:1023F00022952F7030E02230310524F02430310551
:1024000034F00FC09F7049F0811107C00EC09F705B
:1024100021F0F8019581907F41F090E2980F98307B
:1024200020F0C8010E942110BF2CFB2CFFC0FD2C06
:10243000DD2009F4FBC08091DA0181608093DA012C
:10244000BDCF251306C09E1104C0D11002C0D80113
:102450009AC0ED865E878D859E850E948A108823AE
:1024600079F1DD2069F12091DA01822F82958F7058
:1024700090E0029774F08091D5019091D6019887F1
:102480008F8319869B868A862C87CE0107960E94A9
:10249000211086E0F801A5EDB1E001900D928A953A
:1024A000E1F70E94FD100E94CF100DC0251711F119
:1024B000ED865E878D859E850E948A1081112AC0D7
:1024C000C8010E942110FF24F394B0C03111EECF57
:1024D000782D998A888A4E2D6D2D89890E948F10BA
:1024E00085ED91E00E94211086E0F50111928A9518
:1024F000E9F762CF9E11DCCFD110DACFD801159663
:102500008C93C8010E94211086E0F50111928A95F2
:10251000E9F78CC0DD20A1F22091DA01822F8295AB
:102520008F7090E002970CF4B4CF8091D501909118
:10253000D6019A8389831B829D828C822E83CE0151
:102540000196A5CFEF3AF10508F045C0FD2CDD203E
:1025500009F4B6CF25132EC09E112CC02091DA01AC
:1025600020FD1FC0822F82958F70D9F0D80115965B
:102570002C9315978F3049F08F5F982F9295907F0D
:10258000822F8F70892B15968C93C8010E94211081
:1025900086E0F801A5EDB1E001900D928A95E1F792
:1025A00043C086E0F801A5EDB1E001900D928A9557
:1025B000E1F73CC0ED865E878D859E850E948A107E
:1025C000811167CF8091DA0181608093DA01C801BF
:1025D0000E9421102BC0782D998A888A4E2D6D2D4E
:1025E00089890E948F1086E0F50111928A95E9F79A
:1025F0001BC0DD2009F464CFED865E878D859E8546
:102600000E948A10F82E882309F45ACF86E0F80138
:10261000A5EDB1E001900D928A95E1F785ED91E08D
:102620000E94290D0E94FD100E94CF108F2D6296EE
:102630000FB6F894DEBF0FBECDBFDF91CF911F91D3
:102640000F91FF90EF90DF90BF90AF909F908F9091
:1026500008958FEA90E008951F93CF93DF93CDB74D
:10266000DEB72C970FB6F894DEBF0FBECDBF4F83F9
:10267000588769877A878B879C87CE0107960E9447
:102680005911882369F08F8198852A853B85232BF2
:10269000F1F19F3F09F063C08F3F09F060C037C080
:1026A00086E0FE013796DE01119601900D928A9523
:1026B000E1F76F817885EA85FB85309741F17F3FAF
:1026C00011F46F3F21F12091A40130E0C90101967E
:1026D000877099274091A30150E08417950709F46A
:1026E00047C069837A83FD83EC8396E0929FD00193
:1026F000939FB00D1124AB55BE4FFE013196019052
:102700000D929A95E1F78093A4010E94AE1016E015
:102710008091A3019091A4018917C1F1189FC00174
:1027200011248B559E4F0E945911882379F1E09115
:10273000A3011E9FF0011124EB55FE4F40815181F2
:1027400062817381848195810E949E108091A30192
:1027500090E00196877099278093A301D9CF4F818C
:10276000588569857A858B859C850E949E10CFCF80
:102770000E9464101092A4011092A301E5EDF1E013
:1027800086E0DF011D928A95E9F7C1CF2C960FB63E
:10279000F894DEBF0FBECDBFDF91CF911F9108959A
:1027A000EF92FF920F931F93CF93DF938C01892BAE
:1027B00009F46CC0F12CEE24E394E8012196F801B1
:1027C0008491843740F4843008F051C0813081F026
:1027D000823019F15BC0853709F444C0A8F19CE749
:1027E000980F903708F052C08F770E94850D41C036
:1027F0000E5F1F4FFE01C49180E28C0F883048F4B9
:10280000C7708E2D01C0880FCA95EAF70E945A162C
:1028100014C08C2F0E942F0D2DC00E5F1F4FFE0184
:10282000C49180E28C0F883058F4C7708E2D01C09F
:10283000880FCA95EAF70E9460160E9483161AC094
:102840008C2F0E94850D16C00E5F1F4FFE01C49194
:10285000CC2381F08FE99FE00197F1F700C00000E1
:10286000C150F6CF0E5F1F4FFE01F49003C00E94CF
:102870002F0D8E018F2D882309F49FCFEFE9FFE004
:102880003197F1F700C000008150F5CFDF91CF9173
:102890001F910F91FF90EF90089508950C944D149F
:1028A0000E944E1460930C0270930D0280930E02EE
:1028B00090930F020C944A1008950C9450140F93A7
:1028C0001F9300910C0210910D0220910E02309185
:1028D0000F02602B712B822B932B1F910F910C9465
:1028E00050140F931F9300910C0210910D02209130
:1028F0000E0230910F0260237123822393231F91D4
:102900000F910C9450140F931F9300910C0210918F
:102910000D0220910E0230910F026027712782274D
:1029200093271F910F910C94501408950C949514B3
:102930000E949614609308027093090280930A0221
:1029400090930B020C944A1060E070E0CB010C9461
:1029500098140F931F9341E050E060E070E08A010B
:102960009B0104C0000F111F221F331F8A95D2F74D
:10297000C901B8011F910F910C9498140F931F93E4
:1029800041E050E060E070E004C0440F551F661F56
:10299000771F8A95D2F78091080290910902A09141
:1029A0000A02B0910B028A019B01082B192B2A2BDA
:1029B0003B2BC901B8011F910F910C9498140F93F0
:1029C0001F9341E050E060E070E004C0440F551FE9
:1029D000661F771F8A95D2F7409550956095709540
:1029E0008091080290910902A0910A02B0910B0215
:1029F0008A019B01082319232A233B23C901B8011B
:102A00001F910F910C9498140F931F9341E050E085
:102A100060E070E004C0440F551F661F771F8A9561
:102A2000D2F78091080290910902A0910A02B09118
:102A30000B028A019B01082719272A273B27C90176
:102A4000B8011F910F910C9498140F931F9300914C
:102A500008021091090220910A0230910B02602BAA
:102A6000712B822B932B1F910F910C9498140F9321
:102A70001F93009108021091090220910A023091DF
:102A80000B0260237123822393231F910F910C94D7
:102A900098140F931F93009108021091090220913E
:102AA0000A0230910B0260277127822793271F911A
:102AB0000F910C94981408952EE0929F800D11248C
:102AC000A82FA695A695A695877051E001C0550F31
:102AD0008A95EAF785E0A89FD001112420E030E034
:102AE00070E0F901EA0FFB1FE552FE4F4081CB0178
:102AF000022E02C0969587950A94E2F78170992775
:102B0000819584278523842780832F5F3F4F25303D
:102B1000310539F708952EE0929F800D1124682F1A
:102B2000669566956695982F977085E0689FB001C9
:102B3000112440E050E080E0FA01E60FF71FE55273
:102B4000FE4F208130E0092E02C0369527950A9469
:102B5000E2F721703327042E01C0220F0A94EAF70E
:102B6000822B4F5F5F4F4530510531F70895BF927B
:102B7000CF92DF92EF92FF920F931F93CF93DF9349
:102B80008C01C0900C02D0900D02E0900E02F090EB
:102B90000F028091080290910902A0910A02B0915F
:102BA0000B02C82AD92AEA2AFB2ACFE1D0E0D701B2
:102BB000C6010C2E04C0B695A795979587950A94E3
:102BC000D2F780FF07C0BC2EB8018C2F0E94EA0507
:102BD000019719F4219758F7B12C8B2DDF91CF91E4
:102BE0001F910F91FF90EF90DF90CF90BF900895CD
:102BF000CF93DF93EC010E94B715BE010E94EA0556
:102C0000DF91CF9108951F93CF93DF93EB019091C4
:102C1000A201992321F0CB010E94F81513C088234B
:102C200049F0CB010E94B715182F682FCE010E94E2
:102C30005C1504C0CB010E948B15182FBE01812F9B
:102C40000E94EA05DF91CF911F91089580911002B3
:102C500085958595859508958091100287700895D2
:102C600090911002977081E009F480E008958091BE
:102C70003402089590913402892B80933402089590
:102C800080959091340289238093340208951092A4
:102C90003402089590913302892B80933302089572
:102CA0008095909133028923809333020895109286
:102CB0003302089590913202892B80933202089555
:102CC0008095909132028923809332020895109268
:102CD0003202089580911102089508950C946D16A2
:102CE00090911102981721F0809311020C946E16A6
:102CF000089580911102882329F01092110280E03A
:102D00000C946E160895E0910001F09101018091FC
:102D100034028083E0910001F09101019081809163
:102D20003302892B8083E0910001F09101019081B1
:102D300080913202892B808380911102882381F057
:102D4000E0910001F09101019081892B80838091B5
:102D50000001909101010E94A11781110E94791632
:102D600080910001909101010C94D30B08950C9473
:102D7000B61698E0899F90011124262B209310020B
:102D80000E94BE14809110028595859585950C94BE
:102D9000B7161092100280E00C94B7162091100222
:102DA0008095822380931002982F977079F430E0F9
:102DB000482F082E000C550B2417350739F0859540
:102DC000859585950E94DF140C94C916089580E0BE
:102DD00090E00E94202421E08C3E9E4F09F020E0EC
:102DE000822F089582E090E00C941824682F82E0EE
:102DF00090E00C94262483E090E00C941824682F33
:102E000083E090E00C942624CF9384E090E00E942D
:102E10001824C82F81E290E00E9418242C2F30E063
:102E2000A901582BCA01CF910895CF93C92F682FBC
:102E300084E090E00E9426246C2F81E290E0CF9104
:102E40000C94262486E090E00C941824682F86E0E9
:102E500090E00C942624AB01BC018FE090E00C9430
:102E60003824AB01BC0183E190E00C94382460E08D
:102E700070E0CB010C94311760E070E0CB010E9450
:102E80002B170C9437176CEE7EEF80E090E00E94D9
:102E9000442460E082E090E00E94262460E083E029
:102EA00090E00E94262410920C0210920D021092C3
:102EB0000E0210920F0260E084E090E00E9426244F
:102EC00060E081E290E00E94262460E085E090E0EE
:102ED0000E94262460E086E090E00E9426246FEFA6
:102EE00087E090E00E94262440E050E0BA0188E0AC
:102EF00090E00E94382460E08DE090E00E9426245B
:102F000040E050E0BA0188E190E00E94382460E09F
:102F100087E190E00E94262440E050E0BA018CE175
:102F200090E00E94382460E080E290E00E94262435
:102F30000C943C170C944317682F8EE090E00C948F
:102F40002624FC01329680911401882331F080916F
:102F50007F0287FF02C09EE101C096E080E09150B1
:102F600028F021912223D9F38F5FF9CF08956623AA
:102F700069F120911401222321F020917F0227FD85
:102F800004C0FC01329608961DC0262F2695269572
:102F900026952E31D8F4FC01E20FF11D2281822FFB
:102FA00090E0677021E030E002C0220F331F6A9585
:102FB000E2F72823392381E0232B59F407C0E817CF
:102FC000F90721F021912613FACF02C080E008957D
:102FD00081E008959C01FC0132969FEF80E04191D1
:102FE000461789F09F3F19F4411101C0982F8F5F58
:102FF0008630A9F79F3F39F0F901E90FF11D97FDE0
:10300000FA95628308950895FC013296089620810E
:10301000261301C010823196E817F907C1F7089509
:10302000262F2695269526952E3168F4FC01E20F71
:10303000F11D677021E030E001C0220F6A95EAF7C8
:103040008281282B22830895262F26952695269562
:103050002E3170F4FC01E20FF11D677021E030E0C9
:1030600001C0220F6A95EAF72095828128232283E6
:10307000089520911401222329F020917F0227FD39
:103080000C9410180C94EA1720911401222329F0B3
:1030900020917F0227FD0C9424180C940418209191
:1030A0001401FC013296222331F080917F0287FFC8
:1030B00002C08EE101C086E0DF011D928A95E9F72A
:1030C000089508950C9461180E9464100E944508A8
:1030D0000E94C70B0E9470050C9462181F920F92F9
:1030E0000FB60F9211248F939F93AF93BF9380914C
:1030F0003602811113C080917B0290917C02A091D5
:103100007D02B0917E024196A11DB11D80937B028C
:1031100090937C02A0937D02B0937E02BF91AF9109
:103120009F918F910F900FBE0F901F90189582E086
:1031300084BD93E095BD9AEF97BD80936E0008958E
:103140002FB7F89480917B0290917C02A0917D0230
:10315000B0917E022FBF08959C014FB7F8948091E3
:103160007B0290917C02A0917D02B0917E024FBFC4
:10317000821B930B089578941F920F920FB60F92B3
:1031800011248F939F93AF93BF9380917B02909173
:103190007C02A0917D02B0917E020196A11DB11D1D
:1031A00080937B0290937C02A0937D02B0937E0279
:1031B000BF91AF919F918F910F900FBE0F901F9075
:1031C000189581E08093E00080E28093D80010920F
:1031D000C9008FE19EE40197F1F700C0000087E08D
:1031E00090EBDC0180938E0290938F02A09390026B
:1031F000B09391029CE088E10FB6F894A895809373
:1032000060000FBE90936000FFCFAF92BF92CF924D
:10321000DF92EF92FF920F931F93CF93C0E0CC24E5
:10322000C394D12CE82EF12C8C2F0E94D6075C0180
:1032300000E010E09601002E02C0220F331F0A9416
:10324000E2F72A213B21232B31F40F5F1F4F0E3071
:10325000110581F70AC0602F7C2F80E00E94D00505
:10326000E816F90691F781E004C0CF5FC530E1F6BA
:1032700080E0CF911F910F91FF90EF90DF90CF9062
:10328000BF90AF900895CF93C82F8CE20E9405198C
:10329000882321F08C2FCF910C94051980E0CF91D9
:1032A0000895CF930E94E716811102C00E949A17D9
:1032B000C5E6C15049F00E94F7078FE39CE90197EA
:1032C000F1F700C00000F5CF89E20E944319811197
:1032D0002AC18AE20E94431981110E949A1785E04F
:1032E0000E94431981110E94E1180E94F2168093F6
:1032F000350287E00E9443198823A9F18BE10E94DF
:103300004319882351F08091350281FB222720F94F
:1033100091E0922790FB81F90EC08EE00E94431944
:10332000882361F08091350282FB222720F991E009
:10333000922790FB82F98093350215C080E10E94AC
:10334000431990913502882341F093FB222720F9FD
:1033500081E0822780FB93F904C0892F809580FB50
:1033600090F990933502809135020E94F6160E94E2
:1033700004179093800280937F0280EE0E9443198D
:10338000882341F080917F02982F909590FB80F9DF
:1033900080937F0289E30E944319882359F080912A
:1033A0007F0281FB222720F991E0922790FB81F98F
:1033B00080937F0282EE0E944319882359F0809106
:1033C0007F0282FB222720F991E0922790FB82F96D
:1033D00080937F0286EE0E944319882359F08091E2
:1033E0007F0283FB222720F991E0922790FB83F94B
:1033F00080937F0283EE0E944319882359F08091C5
:103400007F0284FB222720F991E0922790FB84F928
:1034100080937F0285E30E944319882359F08091AD
:103420007F0285FB222720F991E0922790FB85F906
:1034300080937F0281E30E944319882359F0809191
:103440007F0286FB222720F991E0922790FB86F9E4
:1034500080937F0281E10E944319882359F0809173
:103460007F0287FB222720F991E0922790FB87F9C2
:1034700080937F0280917F02909180020E941517B5
:1034800087E20E944319C82F8EE10E9443198111DF
:10349000C2608FE10E9443198111C46080E20E94E2
:1034A00043198111C86081E20E9443198111C061F2
:1034B00082E20E9443198111C06283E20E94431993
:1034C0008111C06484E20E944319882311F0C0680E
:1034D00002C0CC2329F08C2F0E94FF166C2F03C052
:1034E0000E94FB16682F70E080E090E00E945D145F
:1034F000609108027091090280910A0290910B027A
:103500000E9496148FE00E944319882319F081E0ED
:103510000E949C1785E10E944319882321F080E0D6
:10352000CF910C949C17CF91089580913D0280FF1C
:103530000BC06091070185E0689FB001112475956B
:103540006795759567952BC081FF09C0609107014C
:1035500085E0689FB00111247595679520C082FFB2
:1035600007C06091070185E0689FB001112417C072
:1035700090913C029923D1F060910601961788F74B
:103580002091070185E0289F90011124929FA001BE
:10359000939F500D112470E0CA010E94EA23603805
:1035A000710540F46115710539F002C065E070E005
:1035B000862F08958FE7089581E0089580913D0258
:1035C00080FF08C06091030170E07595679575955F
:1035D000679521C081FF06C06091030170E0759579
:1035E000679519C082FF04C06091030170E010C0AC
:1035F00090913B029923C1F0609102019617A0F7C8
:1036000080910301899FC001112470E00E94EA2388
:103610006038710528F46115710521F0862F089531
:103620008FE7089581E0089561E070E0F4CF803F76
:1036300021F40E94951A819504C0813F29F40E94CB
:10364000951A809341020895823F21F40E94951AB1
:10365000819504C0833F29F40E94951A809340020B
:103660000895893F19F40E94DE1A05C08A3F31F49B
:103670000E94DE1A81958093420208958B3F21F4C7
:103680000E94DE1A819504C08C3F29F40E94DE1A44
:10369000809343020895843F21F480913F0281602A
:1036A00017C0853F21F480913F02826011C0863FA0
:1036B00021F480913F0284600BC0873F21F4809108
:1036C0003F02886005C0883F31F480913F028061ED
:1036D00080933F0208958D3F21F480913D028160E7
:1036E0000BC08E3F21F480913D02826005C08F3F68
:1036F00029F480913D02846080933D020895803FCB
:1037000039F48091410287FF6AC01092410267C07C
:10371000813F29F4809141021816BCF360C090915A
:103720004002823F29F497FF5AC01092400257C0CE
:10373000833F19F41916CCF352C090914202893F8D
:1037400031F419160CF04BC01092420248C08A3F67
:1037500019F497FF44C0F8CF8B3F39F480914302AE
:1037600087FF3DC0109243023AC08C3F29F48091FC
:1037700043021816BCF333C0843F21F480913F020A
:103780008E7F17C0853F21F480913F028D7F11C04D
:10379000863F21F480913F028B7F0BC0873F21F44D
:1037A00080913F02877F05C0883F31F480913F02BE
:1037B0008F7E80933F0213C08D3F21F480913D02A4
:1037C0008E7F0BC08E3F21F480913D028D7F05C01E
:1037D0008F3F29F480913D028B7F80933D02809141
:1037E0004002811106C080914102811102C01092F5
:1037F0003C0280914202811106C0809143028111F6
:1038000002C010923B0208950E94A018209140022D
:10381000211104C020914102222321F090933A0209
:103820008093390220914202211104C02091430269
:10383000222321F090933802809337028EE392E0A6
:103840000C94ED0BEF92FF920F931F93CF93DF93A6
:1038500000D000D000D0CDB7DEB786E0EEE3F2E0D6
:10386000DE01119601900D928A95E1F7E0904002F9
:10387000F0904102009142021091430210924002E6
:10388000109241021092420210924302E11003C0D2
:10389000FF2009F45DC08091390290913A020E94A4
:1038A000AC18AC0190913C02992339F020910801A9
:1038B00030E02417350758F04BC0209109018AE009
:1038C000289F900111242417350718F041C09F3F0D
:1038D00019F09F5F90933C02EE2061F00E94951AD0
:1038E0001E1414F09FEF01C091E0989F902D1124B9
:1038F00090934002FF2061F00E94951A1F1414F06B
:103900009FEF01C091E0989F902D11249093410268
:10391000309140023323E1F0209141022223C1F093
:1039200045EB3403C0011124892F990F990B00979F
:1039300009F481E08093400235EB2303C001112498
:10394000892F990F990B009709F481E08093410228
:10395000011103C0112309F45DC0809137029091D9
:1039600038020E94AC18AC0190913B02992339F0C7
:103970002091040130E02417350758F04BC0209106
:1039800005018AE0289F900111242417350718F0BB
:1039900041C09F3F19F09F5F90933B02002361F06D
:1039A0000E94DE1A101614F09FEF01C091E0989F5C
:1039B000902D112490934202112361F00E94DE1A8F
:1039C000111614F09FEF01C091E0989F902D1124E3
:1039D00090934302309142023323E1F0209143025D
:1039E0002223C1F045EB3403C0011124892F990F24
:1039F000990B009709F481E08093420235EB230391
:103A0000C0011124892F990F990B009709F481E0C7
:103A1000809343028091400281110BC0809141024A
:103A2000811107C080914202811103C0809143023D
:103A300081110E94041CEB82FC820D831E8386E0B0
:103A4000FE013196AEE3B2E001900D928A95E1F766
:103A500026960FB6F894DEBF0FBECDBFDF91CF9193
:103A60001F910F91FF90EF900895EEE3F2E086E052
:103A7000DF011D928A95E9F710923C0210923B02F9
:103A800010923D020895809164020895CF93DF93D0
:103A900000D01F92CDB7DEB790918502943019F512
:103AA00089837B836A8382E08093E9008FEF909122
:103AB000E800815095FD06C095ED9A95F1F700005C
:103AC0008111F5CF8091E80085FF0DC040E050E006
:103AD00063E070E0CE0101960E944E1F8091E800E5
:103AE0008E778093E8000F900F900F90DF91CF9129
:103AF0000895BC0184E00C94461DBC0183E00C9445
:103B0000461D22E02093E9002FEF3091E80021507C
:103B100035FD06C035ED3A95F1F700002111F5CFDE
:103B20002091E80025FF0BC040E050E066E070E027
:103B30000E944E1F8091E8008E778093E8000895E0
:103B4000CF93DF9320911401222339F020917F023B
:103B500027FF03C060E222E002C068E021E020937A
:103B6000E9002FEF3091E800215035FD06C035ED1A
:103B70003A95F1F700002111F5CF2091E80025FFDB
:103B80001DC0EC0180911401811105C040E050E09E
:103B900068E070E003C070E040E050E0CE010E94B9
:103BA0004E1F8091E8008E778093E80080E2FE014E
:103BB000A4E4B2E001900D928A95E1F7DF91CF91F4
:103BC000089580918402811109C00E94E3200E941F
:103BD00040218091E20084608093E2000895109279
:103BE00084020895089508950C94641842E061ECED
:103BF00081E00E945D2042E261EC82E00C945D2055
:103C000080918702833009F460C030F4813071F014
:103C1000823009F499C008958A3009F485C08B3048
:103C200009F46BC0893009F0A7C020C080918602DA
:103C3000813A09F0A1C08091E800877F8093E80075
:103C400080918A0290918B02892B21F460E284E4B6
:103C500092E003C060E080E090E070E00E94991F75
:103C60008091E8008B778093E80008958091860228
:103C7000813209F081C080918A0290918B02029773
:103C800008F07AC08091E800877F8093E8008091F7
:103C9000E80082FD05C0809185028111F8CF6CC0DB
:103CA0002091F3008091F20090E0922B029729F48A
:103CB0008091F1008B7F813021F48091F10080931D
:103CC00064028091E8008B7753C080918602813A2C
:103CD00009F052C080918A0290918B02892B09F0E1
:103CE0004BC08091E800877F8093E8008091E800D6
:103CF00080FFFCCF8091140136C080918602813212
:103D0000D9F580918A0290918B02892BA9F5809137
:103D1000E800877F8093E8000E94922080918802CB
:103D2000809314010C94641080918602813221F5F5
:103D30008091E800877F8093E8000E949220809124
:103D4000890280936502089580918602813AA1F4E8
:103D50008091E800877F8093E8008091E80080FFF1
:103D6000FCCF809165028093F1008091E8008E770E
:103D70008093E8000C949220089584B7877F84BFD5
:103D80000FB6F894A89580916000886180936000D8
:103D9000109260000FBE90E080E80FB6F894809318
:103DA0006100909361000FBE0E94350C0E94E320D9
:103DB0000E9440218091E20084608093E200789428
:103DC0000E94CF230E943F0C8AE091E00E94C20B28
:103DD0000E94490CFDCF0C94ED1E292F3327233070
:103DE0003105C9F064F42130310581F0223031050C
:103DF00009F04CC08BE390E024EB34E04BC021325F
:103E0000310521F12232310589F140C082E190E093
:103E10002FEE34E03FC099278130910571F02CF4EA
:103E2000892BA1F5E0EBF4E00DC08230910541F063
:103E3000039761F5E6E6F4E005C0ECE8F4E002C0C3
:103E4000ECE6F4E0849190E09F0124C061157105D7
:103E500041F061307105D1F489E090E02FED34E05C
:103E600019C089E090E026EC34E014C061157105BA
:103E700041F06130710551F48CEB90E021E035E0C8
:103E800009C080E490E02DEB35E004C080E090E0D4
:103E900020E030E0FA01318320830895CF92DF9251
:103EA000EF92FF920F931F93CF93DF93EC018B015F
:103EB0006A010E94B120811133C0C114D10439F0CC
:103EC000F60180819181081B190BC80FD91FE12CC5
:103ED000F12C0115110519F18091E80085FD16C03E
:103EE0008091E8008E778093E800C114D10449F0F6
:103EF000F60180819181E80EF91EF182E08285E071
:103F00000FC00E94B120882321F30AC089918093B9
:103F1000F10001501109FFEFEF1AFF0ADACF80E03C
:103F2000DF91CF911F910F91FF90EF90DF90CF9095
:103F3000089520918C0230918D022617370748F0A2
:103F40006115710539F42091E8002E772093E8007F
:103F500001C0B90140E061157105A9F12091850208
:103F6000222309F443C0253009F442C02091E8001F
:103F700023FD40C02091E80022FD32C02091E800DE
:103F800020FFE9CF4091F3002091F20030E0342B84
:103F9000FC01CF016115710559F02830310540F45D
:103FA00081918093F100615071092F5F3F4FF1CFF4
:103FB00041E02830310509F040E02091E8002E77FB
:103FC0002093E800C8CF4111C9CF0AC08091850273
:103FD000882361F0853061F08091E80083FD0AC09C
:103FE0008091E80082FFF2CF80E0089582E008959A
:103FF00083E0089581E0089520918C0230918D0234
:104000002617370748F06115710539F42091E8004B
:104010002E772093E80001C0B901FC0120E0611572
:10402000710591F180918502882309F440C08530A3
:1040300009F43FC08091E80083FD3DC08091E80015
:1040400082FD2FC08091E80080FFE9CF2091F3002E
:104050008091F20090E0922B6115710559F0883043
:10406000910540F424912093F1003196615071093B
:104070000196F2CF21E0089709F020E08091E80056
:104080008E778093E800CBCF2111CCCF0AC08091EE
:104090008502882361F0853061F08091E80083FD1E
:1040A0000AC08091E80082FFF2CF80E0089582E0AC
:1040B000089583E0089581E00895982F973058F58A
:1040C0009093E900981739F07091EC002091ED0081
:1040D0005091F00003C0242F762F50E021FF19C02B
:1040E0003091EB003E7F3093EB003091ED003D7F4F
:1040F0003093ED003091EB0031603093EB00709322
:10410000EC002093ED005093F0002091EE0027FF8B
:1041100007C09F5FD3CF8F708093E90081E008953F
:1041200080E008958091860287FF11C08091E800A9
:1041300082FD05C0809185028111F8CF11C0809168
:10414000E8008B770BC080918502882349F080912D
:10415000E80080FFF8CF8091E8008E778093E80038
:1041600008952091E4003091E50095E64091EC003F
:10417000842F817040FF22C08091E80080FD1CC028
:1041800080918502882391F0853091F08091EB0039
:1041900085FD10C04091E4005091E500421753079F
:1041A00029F39A01915011F784E0089582E008956F
:1041B00083E0089581E0089580E008954091E8004B
:1041C00042FFDECF08950E9451210E945921E0EE66
:1041D000F0E0808181608083E8EDF0E080818F777E
:1041E000808319BCA7EDB0E08C918E7F8C93808189
:1041F0008F7E80831092840208950F931F93CF9334
:10420000DF930E9451210E945921C8EDD0E088819E
:104210008F77888388818068888388818F7D888371
:1042200019BC1092850210928102109283021092A2
:10423000820200EE10E0F80180818B7F808388810C
:104240008160888342E060E080E00E945D20E1EED2
:10425000F0E080818E7F8083E2EEF0E080818160FB
:104260008083808188608083F80180818E7F808355
:10427000888180618883DF91CF911F910F9108958C
:10428000E8EDF0E080818F7E8083E7EDF0E08081D3
:104290008160808384E082BF81E0809384020C94FB
:1042A000FD20E8EDF0E080818E7F80831092E200B7
:1042B00008951092DA001092E10008951F920F9273
:1042C0000FB60F9211242F933F934F935F936F93E9
:1042D0007F938F939F93AF93BF93EF93FF938091BF
:1042E000E10082FF0BC08091E20082FF07C0809155
:1042F000E1008B7F8093E1000E94CE238091DA0061
:1043000080FF1FC08091D80080FF1BC08091DA0021
:104310008E7F8093DA008091D90080FF0DC080E10C
:1043200089BD82E189BD09B400FEFDCF81E08093A3
:1043300085020E94E11D05C019BC109285020E94F1
:10434000EF1D8091E10080FF19C08091E20080FFA5
:1043500015C08091E2008E7F8093E2008091E200A0
:1043600080618093E2008091D80080628093D800C1
:1043700019BC85E0809385020E94F31D8091E100C5
:1043800084FF30C08091E20084FF2CC080E189BDB1
:1043900082E189BD09B400FEFDCF8091D8008F7DF8
:1043A0008093D8008091E1008F7E8093E10080911E
:1043B000E2008F7E8093E2008091E2008160809332
:1043C000E20080918102882311F084E007C080918F
:1043D000E30087FD02C081E001C083E08093850295
:1043E0000E94F41D8091E10083FF29C08091E200CA
:1043F00083FF25C08091E100877F8093E10082E008
:1044000080938502109281028091E1008E7F8093DB
:10441000E1008091E2008E7F8093E2008091E200D3
:1044200080618093E20042E060E080E00E945D20D5
:104430008091F00088608093F0000E94F21DFF914F
:10444000EF91BF91AF919F918F917F916F915F910C
:104450004F913F912F910F900FBE0F901F90189585
:104460001F920F920FB60F9211242F933F934F93E9
:104470005F936F937F938F939F93AF93BF93CF93EC
:10448000DF93EF93FF93C091E900CF708091EC0030
:10449000D82FD17080FDD0E81092E9008091F00013
:1044A000877F8093F00078940E9474221092E90034
:1044B0008091F00088608093F000CD2BCF70C09386
:1044C000E900FF91EF91DF91CF91BF91AF919F9163
:1044D0008F917F916F915F914F913F912F910F90AD
:1044E0000FBE0F901F9018951F93CF93DF93CDB7FA
:1044F000DEB7AA970FB6F894DEBF0FBECDBFE6E8D1
:10450000F2E088E08E0F9091F10091938E13FBCF33
:104510000E94001E8091E80083FF28C180918602DE
:1045200090918702492F50E04A30510508F01EC192
:10453000FA01EC58FF4F0C94FE23803821F08238AA
:1045400009F014C108C080918202909183029923DE
:1045500089F082600FC080918A028F70873008F0E6
:1045600005C18093E9008091EB0085FB882780F9E5
:104570001092E9009091E800977F9093E800809373
:10458000F1001092F100D0C0282F2D7F09F0EEC06D
:10459000882319F0823061F0E9C08091880281306F
:1045A00009F0E4C0933009F080E0809383022EC0CC
:1045B0008091880281112AC080918A028F702FEF2A
:1045C000280F263008F0D2C08093E9002091EB003C
:1045D00020FF1CC0933021F48091EB00806214C056
:1045E0009091EB0090619093EB0021E030E0A90105
:1045F00002C0440F551F8A95E2F74093EA001092DB
:10460000EA008091EB0088608093EB001092E90053
:104610008091E800877F8093E8000E949220A6C0E6
:104620008111A4C0109188021F778091E3008078E7
:10463000812B8093E3008091E800877F8093E800DE
:104640000E9492208091E80080FFFCCF8091E300DF
:1046500080688093E300111102C082E001C083E012
:104660008093850283C08058823008F07FC080919B
:104670008802909189028C3D53E0950779F583E09B
:104680008A838AE289834FB7F894DE01139620E08B
:104690003EE051E2E32FF0E050935700E49120FF19
:1046A00003C0E295EF703F5FEF708E2F90E0EA302D
:1046B00010F0C79601C0C0968D939D932F5F243153
:1046C00049F74FBF8091E800877F8093E8006AE256
:1046D00070E0CE0101960E94991F15C060918A0278
:1046E00070918B02AE014F5F5F4F0E94EB1EBC01C9
:1046F000892BE1F19091E800977F9093E800898100
:104700009A810E94FC1F8091E8008B778093E800DB
:104710002DC0803859F58091E800877F8093E800AC
:10472000809181028093F1008091E8008E7773CFB1
:1047300081111CC0909188029230C0F48091E800F1
:10474000877F8093E800909381020E94922080915D
:104750008102811106C08091E30087FD02C081E0E3
:1047600001C084E0809385020E94F61D8091E800DC
:1047700083FF0AC08091E800877F8093E8008091E2
:10478000EB0080628093EB00AA960FB6F894DEBF30
:104790000FBECDBFDF91CF911F9108950895CF93A4
:1047A000809185028823A1F0C091E900CF7090919B
:1047B000EC00892F817090FD80E8C82B1092E900F1
:1047C0008091E80083FD0E947422CF70C093E900BD
:1047D000CF91089597FB072E16F4009407D077FD2C
:1047E00009D00E94042407FC05D03EF490958195E1
:1047F0009F4F0895709561957F4F0895EE0FFF1FAD
:104800000590F491E02D0994AA1BBB1B51E107C050
:10481000AA1FBB1FA617B70710F0A61BB70B881F50
:10482000991F5A95A9F780959095BC01CD010895DF
:10483000F999FECF92BD81BDF89A992780B5089568
:10484000A8E1B0E042E050E00C944C24262FF99906
:10485000FECF92BD81BDF89A019700B4021639F0DF
:104860001FBA20BD0FB6F894FA9AF99A0FBE0895B0
:104870000396272F0E9427240E942624252F0E947A
:104880002724242F0C9427240196272F0E942724C5
:104890000C942624DC01CB01FC01F999FECF06C063
:1048A000F2BDE1BDF89A319600B40D9241505040EE
:0848B000B8F70895F894FFCF5A
:1048B80012022808641E140A321E431DA01D811D01
:1048C8007D1D791D01F531F0F1F433979694959398
:1048D8009291903032343536E200E900EA00B500B2
:1048E800B600B700CD008301CC008A019201940183
:1048F8002102230224022502260227022A02B300EB
:10490800B4006F007000818283E200E900EA00B51C
:1049180000B600B700CD008301CC008A0192019453
:10492800012102230224022502260227022A02B3B9
:0A49380000B4006F0070008182835C
:00000001FF
